{
  "_format": "hh-sol-artifact-1",
  "contractName": "Voting",
  "sourceName": "contracts/Voting.sol",
  "abi": [
    {
      "inputs": [],
      "stateMutability": "nonpayable",
      "type": "constructor"
    },
    {
      "anonymous": false,
      "inputs": [
        {
          "indexed": true,
          "internalType": "uint256",
          "name": "candidateId",
          "type": "uint256"
        }
      ],
      "name": "VotedEvent",
      "type": "event"
    },
    {
      "inputs": [
        {
          "internalType": "uint256",
          "name": "",
          "type": "uint256"
        }
      ],
      "name": "candidates",
      "outputs": [
        {
          "internalType": "uint256",
          "name": "id",
          "type": "uint256"
        },
        {
          "internalType": "string",
          "name": "name",
          "type": "string"
        },
        {
          "internalType": "uint256",
          "name": "voteCount",
          "type": "uint256"
        }
      ],
      "stateMutability": "view",
      "type": "function"
    },
    {
      "inputs": [],
      "name": "candidatesCount",
      "outputs": [
        {
          "internalType": "uint256",
          "name": "",
          "type": "uint256"
        }
      ],
      "stateMutability": "view",
      "type": "function"
    },
    {
      "inputs": [
        {
          "internalType": "uint256",
          "name": "_candidateId",
          "type": "uint256"
        }
      ],
      "name": "getCandidate",
      "outputs": [
        {
          "internalType": "uint256",
          "name": "",
          "type": "uint256"
        },
        {
          "internalType": "string",
          "name": "",
          "type": "string"
        },
        {
          "internalType": "uint256",
          "name": "",
          "type": "uint256"
        }
      ],
      "stateMutability": "view",
      "type": "function"
    },
    {
      "inputs": [
        {
          "internalType": "uint256",
          "name": "_candidateId",
          "type": "uint256"
        }
      ],
      "name": "vote",
      "outputs": [],
      "stateMutability": "nonpayable",
      "type": "function"
    },
    {
      "inputs": [
        {
          "internalType": "address",
          "name": "",
          "type": "address"
        }
      ],
      "name": "voters",
      "outputs": [
        {
          "internalType": "bool",
          "name": "",
          "type": "bool"
        }
      ],
      "stateMutability": "view",
      "type": "function"
    }
  ],
  "bytecode": "0x60806040523480156200001157600080fd5b50620000586040518060400160405280600881526020017f496d537068696e780000000000000000000000000000000000000000000000008152506200013060201b60201c565b6200009e6040518060400160405280600681526020017f446c6976657200000000000000000000000000000000000000000000000000008152506200013060201b60201c565b620000e46040518060400160405280600581526020017f5472756d700000000000000000000000000000000000000000000000000000008152506200013060201b60201c565b6200012a6040518060400160405280600381526020017f446f6e00000000000000000000000000000000000000000000000000000000008152506200013060201b60201c565b6200058b565b600260008154809291906200014590620001e7565b919050555060405180606001604052806002548152602001828152602001600081525060008060025481526020019081526020016000206000820151816000015560208201518160010190816200019d9190620004a4565b506040820151816002015590505050565b7f4e487b7100000000000000000000000000000000000000000000000000000000600052601160045260246000fd5b6000819050919050565b6000620001f482620001dd565b91507fffffffffffffffffffffffffffffffffffffffffffffffffffffffffffffffff8203620002295762000228620001ae565b5b600182019050919050565b600081519050919050565b7f4e487b7100000000000000000000000000000000000000000000000000000000600052604160045260246000fd5b7f4e487b7100000000000000000000000000000000000000000000000000000000600052602260045260246000fd5b60006002820490506001821680620002b657607f821691505b602082108103620002cc57620002cb6200026e565b5b50919050565b60008190508160005260206000209050919050565b60006020601f8301049050919050565b600082821b905092915050565b600060088302620003367fffffffffffffffffffffffffffffffffffffffffffffffffffffffffffffffff82620002f7565b620003428683620002f7565b95508019841693508086168417925050509392505050565b6000819050919050565b6000620003856200037f6200037984620001dd565b6200035a565b620001dd565b9050919050565b6000819050919050565b620003a18362000364565b620003b9620003b0826200038c565b84845462000304565b825550505050565b600090565b620003d0620003c1565b620003dd81848462000396565b505050565b5b818110156200040557620003f9600082620003c6565b600181019050620003e3565b5050565b601f82111562000454576200041e81620002d2565b6200042984620002e7565b8101602085101562000439578190505b620004516200044885620002e7565b830182620003e2565b50505b505050565b600082821c905092915050565b6000620004796000198460080262000459565b1980831691505092915050565b600062000494838362000466565b9150826002028217905092915050565b620004af8262000234565b67ffffffffffffffff811115620004cb57620004ca6200023f565b5b620004d782546200029d565b620004e482828562000409565b600060209050601f8311600181146200051c576000841562000507578287015190505b62000513858262000486565b86555062000583565b601f1984166200052c86620002d2565b60005b8281101562000556578489015182556001820191506020850194506020810190506200052f565b8683101562000576578489015162000572601f89168262000466565b8355505b6001600288020188555050505b505050505050565b610881806200059b6000396000f3fe608060405234801561001057600080fd5b50600436106100575760003560e01c80630121b93f1461005c5780632d35a8a2146100785780633477ee2e1461009657806335b8e820146100c8578063a3ec138d146100fa575b600080fd5b610076600480360381019061007191906104b6565b61012a565b005b6100806102ba565b60405161008d91906104f2565b60405180910390f35b6100b060048036038101906100ab91906104b6565b6102c0565b6040516100bf9392919061059d565b60405180910390f35b6100e260048036038101906100dd91906104b6565b610372565b6040516100f19392919061059d565b60405180910390f35b610114600480360381019061010f9190610639565b61045b565b6040516101219190610681565b60405180910390f35b600160003373ffffffffffffffffffffffffffffffffffffffff1673ffffffffffffffffffffffffffffffffffffffff16815260200190815260200160002060009054906101000a900460ff16156101b7576040517f08c379a00000000000000000000000000000000000000000000000000000000081526004016101ae906106e8565b60405180910390fd5b6000811180156101c957506002548111155b610208576040517f08c379a00000000000000000000000000000000000000000000000000000000081526004016101ff90610754565b60405180910390fd5b60018060003373ffffffffffffffffffffffffffffffffffffffff1673ffffffffffffffffffffffffffffffffffffffff16815260200190815260200160002060006101000a81548160ff0219169083151502179055506000808281526020019081526020016000206002016000815480929190610285906107a3565b9190505550807fe447c5464cb203c1da94b4db8588d3cbf313ce4a489122f6b88e87f465b2810e60405160405180910390a250565b60025481565b60006020528060005260406000206000915090508060000154908060010180546102e99061081a565b80601f01602080910402602001604051908101604052809291908181526020018280546103159061081a565b80156103625780601f1061033757610100808354040283529160200191610362565b820191906000526020600020905b81548152906001019060200180831161034557829003601f168201915b5050505050908060020154905083565b60006060600080600080868152602001908152602001600020604051806060016040529081600082015481526020016001820180546103b09061081a565b80601f01602080910402602001604051908101604052809291908181526020018280546103dc9061081a565b80156104295780601f106103fe57610100808354040283529160200191610429565b820191906000526020600020905b81548152906001019060200180831161040c57829003601f168201915b505050505081526020016002820154815250509050806000015181602001518260400151935093509350509193909250565b60016020528060005260406000206000915054906101000a900460ff1681565b600080fd5b6000819050919050565b61049381610480565b811461049e57600080fd5b50565b6000813590506104b08161048a565b92915050565b6000602082840312156104cc576104cb61047b565b5b60006104da848285016104a1565b91505092915050565b6104ec81610480565b82525050565b600060208201905061050760008301846104e3565b92915050565b600081519050919050565b600082825260208201905092915050565b60005b8381101561054757808201518184015260208101905061052c565b60008484015250505050565b6000601f19601f8301169050919050565b600061056f8261050d565b6105798185610518565b9350610589818560208601610529565b61059281610553565b840191505092915050565b60006060820190506105b260008301866104e3565b81810360208301526105c48185610564565b90506105d360408301846104e3565b949350505050565b600073ffffffffffffffffffffffffffffffffffffffff82169050919050565b6000610606826105db565b9050919050565b610616816105fb565b811461062157600080fd5b50565b6000813590506106338161060d565b92915050565b60006020828403121561064f5761064e61047b565b5b600061065d84828501610624565b91505092915050565b60008115159050919050565b61067b81610666565b82525050565b60006020820190506106966000830184610672565b92915050565b7f596f75206861766520616c726561647920766f7465642e000000000000000000600082015250565b60006106d2601783610518565b91506106dd8261069c565b602082019050919050565b60006020820190508181036000830152610701816106c5565b9050919050565b7f496e76616c69642063616e6469646174652e0000000000000000000000000000600082015250565b600061073e601283610518565b915061074982610708565b602082019050919050565b6000602082019050818103600083015261076d81610731565b9050919050565b7f4e487b7100000000000000000000000000000000000000000000000000000000600052601160045260246000fd5b60006107ae82610480565b91507fffffffffffffffffffffffffffffffffffffffffffffffffffffffffffffffff82036107e0576107df610774565b5b600182019050919050565b7f4e487b7100000000000000000000000000000000000000000000000000000000600052602260045260246000fd5b6000600282049050600182168061083257607f821691505b602082108103610845576108446107eb565b5b5091905056fea264697066735822122002a98978c21a56a720ada222faa32784a6ea5ed147354aea82f665c69385e58d64736f6c63430008180033",
  "linkReferences": {},
  "deployedLinkReferences": {}
}